{
  "contractName": "Election",
  "abi": [
    {
      "anonymous": false,
      "inputs": [
        {
          "indexed": false,
          "internalType": "uint256",
          "name": "electionId",
          "type": "uint256"
        },
        {
          "indexed": false,
          "internalType": "uint256",
          "name": "candidateId",
          "type": "uint256"
        },
        {
          "indexed": false,
          "internalType": "string",
          "name": "name",
          "type": "string"
        }
      ],
      "name": "CandidateAdded",
      "type": "event"
    },
    {
      "anonymous": false,
      "inputs": [
        {
          "indexed": false,
          "internalType": "uint256",
          "name": "electionId",
          "type": "uint256"
        },
        {
          "indexed": false,
          "internalType": "string",
          "name": "name",
          "type": "string"
        }
      ],
      "name": "ElectionCreated",
      "type": "event"
    },
    {
      "anonymous": false,
      "inputs": [
        {
          "indexed": false,
          "internalType": "uint256",
          "name": "electionId",
          "type": "uint256"
        },
        {
          "indexed": false,
          "internalType": "uint256",
          "name": "candidateId",
          "type": "uint256"
        }
      ],
      "name": "Voted",
      "type": "event"
    },
    {
      "anonymous": false,
      "inputs": [
        {
          "indexed": false,
          "internalType": "uint256",
          "name": "voterId",
          "type": "uint256"
        },
        {
          "indexed": false,
          "internalType": "string",
          "name": "name",
          "type": "string"
        },
        {
          "indexed": false,
          "internalType": "string",
          "name": "email",
          "type": "string"
        },
        {
          "indexed": false,
          "internalType": "address",
          "name": "walletAddress",
          "type": "address"
        }
      ],
      "name": "VoterRegistered",
      "type": "event"
    },
    {
      "inputs": [
        {
          "internalType": "string",
          "name": "",
          "type": "string"
        }
      ],
      "name": "aadharToVoterId",
      "outputs": [
        {
          "internalType": "uint256",
          "name": "",
          "type": "uint256"
        }
      ],
      "stateMutability": "view",
      "type": "function"
    },
    {
      "inputs": [],
      "name": "electionCount",
      "outputs": [
        {
          "internalType": "uint256",
          "name": "",
          "type": "uint256"
        }
      ],
      "stateMutability": "view",
      "type": "function"
    },
    {
      "inputs": [
        {
          "internalType": "uint256",
          "name": "",
          "type": "uint256"
        }
      ],
      "name": "elections",
      "outputs": [
        {
          "internalType": "uint256",
          "name": "id",
          "type": "uint256"
        },
        {
          "internalType": "string",
          "name": "name",
          "type": "string"
        },
        {
          "internalType": "bool",
          "name": "isActive",
          "type": "bool"
        },
        {
          "internalType": "uint256",
          "name": "candidateCount",
          "type": "uint256"
        }
      ],
      "stateMutability": "view",
      "type": "function"
    },
    {
      "inputs": [
        {
          "internalType": "string",
          "name": "",
          "type": "string"
        }
      ],
      "name": "emailToVoterId",
      "outputs": [
        {
          "internalType": "uint256",
          "name": "",
          "type": "uint256"
        }
      ],
      "stateMutability": "view",
      "type": "function"
    },
    {
      "inputs": [],
      "name": "voterCount",
      "outputs": [
        {
          "internalType": "uint256",
          "name": "",
          "type": "uint256"
        }
      ],
      "stateMutability": "view",
      "type": "function"
    },
    {
      "inputs": [
        {
          "internalType": "uint256",
          "name": "",
          "type": "uint256"
        }
      ],
      "name": "voters",
      "outputs": [
        {
          "internalType": "uint256",
          "name": "id",
          "type": "uint256"
        },
        {
          "internalType": "string",
          "name": "name",
          "type": "string"
        },
        {
          "internalType": "string",
          "name": "aadhar",
          "type": "string"
        },
        {
          "internalType": "string",
          "name": "email",
          "type": "string"
        },
        {
          "internalType": "string",
          "name": "phone",
          "type": "string"
        },
        {
          "internalType": "string",
          "name": "passwordHash",
          "type": "string"
        },
        {
          "internalType": "address",
          "name": "walletAddress",
          "type": "address"
        }
      ],
      "stateMutability": "view",
      "type": "function"
    },
    {
      "inputs": [
        {
          "internalType": "address",
          "name": "",
          "type": "address"
        }
      ],
      "name": "walletToVoterId",
      "outputs": [
        {
          "internalType": "uint256",
          "name": "",
          "type": "uint256"
        }
      ],
      "stateMutability": "view",
      "type": "function"
    },
    {
      "inputs": [
        {
          "internalType": "string",
          "name": "_name",
          "type": "string"
        }
      ],
      "name": "createElection",
      "outputs": [],
      "stateMutability": "nonpayable",
      "type": "function"
    },
    {
      "inputs": [
        {
          "internalType": "uint256",
          "name": "_electionId",
          "type": "uint256"
        },
        {
          "internalType": "string",
          "name": "_name",
          "type": "string"
        }
      ],
      "name": "addCandidate",
      "outputs": [],
      "stateMutability": "nonpayable",
      "type": "function"
    },
    {
      "inputs": [
        {
          "internalType": "uint256",
          "name": "_electionId",
          "type": "uint256"
        },
        {
          "internalType": "uint256",
          "name": "_candidateId",
          "type": "uint256"
        }
      ],
      "name": "vote",
      "outputs": [],
      "stateMutability": "nonpayable",
      "type": "function"
    },
    {
      "inputs": [
        {
          "internalType": "string",
          "name": "_name",
          "type": "string"
        },
        {
          "internalType": "string",
          "name": "_aadhar",
          "type": "string"
        },
        {
          "internalType": "string",
          "name": "_email",
          "type": "string"
        },
        {
          "internalType": "string",
          "name": "_phone",
          "type": "string"
        },
        {
          "internalType": "string",
          "name": "_passwordHash",
          "type": "string"
        },
        {
          "internalType": "address",
          "name": "_walletAddress",
          "type": "address"
        }
      ],
      "name": "registerVoter",
      "outputs": [],
      "stateMutability": "nonpayable",
      "type": "function"
    },
    {
      "inputs": [
        {
          "internalType": "uint256",
          "name": "_electionId",
          "type": "uint256"
        },
        {
          "internalType": "uint256",
          "name": "_candidateId",
          "type": "uint256"
        }
      ],
      "name": "getCandidate",
      "outputs": [
        {
          "internalType": "uint256",
          "name": "",
          "type": "uint256"
        },
        {
          "internalType": "string",
          "name": "",
          "type": "string"
        },
        {
          "internalType": "uint256",
          "name": "",
          "type": "uint256"
        }
      ],
      "stateMutability": "view",
      "type": "function"
    },
    {
      "inputs": [
        {
          "internalType": "uint256",
          "name": "_electionId",
          "type": "uint256"
        }
      ],
      "name": "getElectionDetails",
      "outputs": [
        {
          "internalType": "uint256",
          "name": "",
          "type": "uint256"
        },
        {
          "internalType": "string",
          "name": "",
          "type": "string"
        },
        {
          "internalType": "bool",
          "name": "",
          "type": "bool"
        },
        {
          "internalType": "uint256",
          "name": "",
          "type": "uint256"
        }
      ],
      "stateMutability": "view",
      "type": "function"
    },
    {
      "inputs": [
        {
          "internalType": "uint256",
          "name": "_voterId",
          "type": "uint256"
        }
      ],
      "name": "getVoterDetails",
      "outputs": [
        {
          "internalType": "uint256",
          "name": "",
          "type": "uint256"
        },
        {
          "internalType": "string",
          "name": "",
          "type": "string"
        },
        {
          "internalType": "string",
          "name": "",
          "type": "string"
        },
        {
          "internalType": "string",
          "name": "",
          "type": "string"
        },
        {
          "internalType": "string",
          "name": "",
          "type": "string"
        },
        {
          "internalType": "address",
          "name": "",
          "type": "address"
        }
      ],
      "stateMutability": "view",
      "type": "function"
    },
    {
      "inputs": [
        {
          "internalType": "address",
          "name": "_walletAddress",
          "type": "address"
        }
      ],
      "name": "getVoterByWallet",
      "outputs": [
        {
          "internalType": "uint256",
          "name": "",
          "type": "uint256"
        },
        {
          "internalType": "string",
          "name": "",
          "type": "string"
        },
        {
          "internalType": "string",
          "name": "",
          "type": "string"
        },
        {
          "internalType": "string",
          "name": "",
          "type": "string"
        },
        {
          "internalType": "string",
          "name": "",
          "type": "string"
        },
        {
          "internalType": "address",
          "name": "",
          "type": "address"
        }
      ],
      "stateMutability": "view",
      "type": "function"
    },
    {
      "inputs": [
        {
          "internalType": "uint256",
          "name": "_electionId",
          "type": "uint256"
        }
      ],
      "name": "getElectionResults",
      "outputs": [
        {
          "internalType": "string[]",
          "name": "",
          "type": "string[]"
        },
        {
          "internalType": "uint256[]",
          "name": "",
          "type": "uint256[]"
        }
      ],
      "stateMutability": "view",
      "type": "function"
    }
  ],
  "bytecode": "0x608060405234801561001057600080fd5b50612ba9806100206000396000f3fe608060405234801561001057600080fd5b50600436106101005760003560e01c8063997d283011610097578063e8ededa611610066578063e8ededa6146102fa578063f60499241461032b578063f7191e011461035e578063ff9e50fe1461038e57610100565b8063997d283014610255578063b384abef14610273578063da58c7d91461028f578063e56f7863146102c557610100565b80635e6fef01116100d35780635e6fef011461018d5780636ba7cbbc146101c05780636db6ec90146101f05780637b8fe1661461022057610100565b806315cf4a5f146101055780631750a3d01461012157806342169e481461013d5780634bd464481461015b575b600080fd5b61011f600480360381019061011a9190611c31565b6103aa565b005b61013b60048036038101906101369190611cb0565b61045c565b005b610145610588565b6040516101529190611d1b565b60405180910390f35b61017560048036038101906101709190611d36565b61058e565b60405161018493929190611df5565b60405180910390f35b6101a760048036038101906101a29190611e33565b610692565b6040516101b79493929190611e7b565b60405180910390f35b6101da60048036038101906101d59190611c31565b610757565b6040516101e79190611d1b565b60405180910390f35b61020a60048036038101906102059190611f25565b610785565b6040516102179190611d1b565b60405180910390f35b61023a60048036038101906102359190611e33565b61079d565b60405161024c96959493929190611f61565b60405180910390f35b61025d610b36565b60405161026a9190611d1b565b60405180910390f35b61028d60048036038101906102889190611d36565b610b3c565b005b6102a960048036038101906102a49190611e33565b610cf9565b6040516102bc9796959493929190611fde565b60405180910390f35b6102df60048036038101906102da9190611f25565b611003565b6040516102f196959493929190611f61565b60405180910390f35b610314600480360381019061030f9190611e33565b611424565b60405161032292919061223a565b60405180910390f35b61034560048036038101906103409190611e33565b61167a565b6040516103559493929190611e7b565b60405180910390f35b61037860048036038101906103739190611c31565b611754565b6040516103859190611d1b565b60405180910390f35b6103a860048036038101906103a39190612271565b611782565b005b6000808154809291906103bc906123b9565b91905055506000600160008054815260200190815260200160002090506000548160000181905550818160010190816103f5919061260d565b5060018160020160006101000a81548160ff021916908315150217905550600081600301819055507f52be7c4e77b4de76b7607d621492061fe13b58597e72dfb5e51ab8f6187ed141600054836040516104509291906126df565b60405180910390a15050565b60006001600084815260200190815260200160002090508060020160009054906101000a900460ff166104c4576040517f08c379a00000000000000000000000000000000000000000000000000000000081526004016104bb9061275b565b60405180910390fd5b8060030160008154809291906104d9906123b9565b9190505550604051806060016040528082600301548152602001838152602001600081525081600401600083600301548152602001908152602001600020600082015181600001556020820151816001019081610536919061260d565b50604082015181600201559050507fed8911b3df733b7d5f75724158e54478ea12e30f49c9d31b5261879f5b76586f8382600301548460405161057b9392919061277b565b60405180910390a1505050565b60025481565b600060606000806001600087815260200190815260200160002090506000816004016000878152602001908152602001600020604051806060016040529081600082015481526020016001820180546105e690612430565b80601f016020809104026020016040519081016040528092919081815260200182805461061290612430565b801561065f5780601f106106345761010080835404028352916020019161065f565b820191906000526020600020905b81548152906001019060200180831161064257829003601f168201915b50505050508152602001600282015481525050905080600001518160200151826040015194509450945050509250925092565b60016020528060005260406000206000915090508060000154908060010180546106bb90612430565b80601f01602080910402602001604051908101604052809291908181526020018280546106e790612430565b80156107345780601f1061070957610100808354040283529160200191610734565b820191906000526020600020905b81548152906001019060200180831161071757829003601f168201915b5050505050908060020160009054906101000a900460ff16908060030154905084565b6005818051602081018201805184825260208301602085012081835280955050505050506000915090505481565b60066020528060005260406000206000915090505481565b6000606080606080600080600360008981526020019081526020016000206040518060e0016040529081600082015481526020016001820180546107e090612430565b80601f016020809104026020016040519081016040528092919081815260200182805461080c90612430565b80156108595780601f1061082e57610100808354040283529160200191610859565b820191906000526020600020905b81548152906001019060200180831161083c57829003601f168201915b5050505050815260200160028201805461087290612430565b80601f016020809104026020016040519081016040528092919081815260200182805461089e90612430565b80156108eb5780601f106108c0576101008083540402835291602001916108eb565b820191906000526020600020905b8154815290600101906020018083116108ce57829003601f168201915b5050505050815260200160038201805461090490612430565b80601f016020809104026020016040519081016040528092919081815260200182805461093090612430565b801561097d5780601f106109525761010080835404028352916020019161097d565b820191906000526020600020905b81548152906001019060200180831161096057829003601f168201915b5050505050815260200160048201805461099690612430565b80601f01602080910402602001604051908101604052809291908181526020018280546109c290612430565b8015610a0f5780601f106109e457610100808354040283529160200191610a0f565b820191906000526020600020905b8154815290600101906020018083116109f257829003601f168201915b50505050508152602001600582018054610a2890612430565b80601f0160208091040260200160405190810160405280929190818152602001828054610a5490612430565b8015610aa15780601f10610a7657610100808354040283529160200191610aa1565b820191906000526020600020905b815481529060010190602001808311610a8457829003601f168201915b505050505081526020016006820160009054906101000a900473ffffffffffffffffffffffffffffffffffffffff1673ffffffffffffffffffffffffffffffffffffffff1673ffffffffffffffffffffffffffffffffffffffff16815250509050806000015181602001518260400151836060015184608001518560c001519650965096509650965096505091939550919395565b60005481565b60006001600084815260200190815260200160002090508060020160009054906101000a900460ff16610ba4576040517f08c379a0000000000000000000000000000000000000000000000000000000008152600401610b9b9061275b565b60405180910390fd5b8060050160003373ffffffffffffffffffffffffffffffffffffffff1673ffffffffffffffffffffffffffffffffffffffff16815260200190815260200160002060009054906101000a900460ff1615610c33576040517f08c379a0000000000000000000000000000000000000000000000000000000008152600401610c2a90612805565b60405180910390fd5b60018160050160003373ffffffffffffffffffffffffffffffffffffffff1673ffffffffffffffffffffffffffffffffffffffff16815260200190815260200160002060006101000a81548160ff0219169083151502179055508060040160008381526020019081526020016000206002016000815480929190610cb6906123b9565b91905055507f84a5508ca0d85b42a876e75a9126f3ae7b43617ce60b170bf8805d34630bc6548383604051610cec929190612825565b60405180910390a1505050565b6003602052806000526040600020600091509050806000015490806001018054610d2290612430565b80601f0160208091040260200160405190810160405280929190818152602001828054610d4e90612430565b8015610d9b5780601f10610d7057610100808354040283529160200191610d9b565b820191906000526020600020905b815481529060010190602001808311610d7e57829003601f168201915b505050505090806002018054610db090612430565b80601f0160208091040260200160405190810160405280929190818152602001828054610ddc90612430565b8015610e295780601f10610dfe57610100808354040283529160200191610e29565b820191906000526020600020905b815481529060010190602001808311610e0c57829003601f168201915b505050505090806003018054610e3e90612430565b80601f0160208091040260200160405190810160405280929190818152602001828054610e6a90612430565b8015610eb75780601f10610e8c57610100808354040283529160200191610eb7565b820191906000526020600020905b815481529060010190602001808311610e9a57829003601f168201915b505050505090806004018054610ecc90612430565b80601f0160208091040260200160405190810160405280929190818152602001828054610ef890612430565b8015610f455780601f10610f1a57610100808354040283529160200191610f45565b820191906000526020600020905b815481529060010190602001808311610f2857829003601f168201915b505050505090806005018054610f5a90612430565b80601f0160208091040260200160405190810160405280929190818152602001828054610f8690612430565b8015610fd35780601f10610fa857610100808354040283529160200191610fd3565b820191906000526020600020905b815481529060010190602001808311610fb657829003601f168201915b5050505050908060060160009054906101000a900473ffffffffffffffffffffffffffffffffffffffff16905087565b6000606080606080600080600660008973ffffffffffffffffffffffffffffffffffffffff1673ffffffffffffffffffffffffffffffffffffffff16815260200190815260200160002054905060008103611093576040517f08c379a000000000000000000000000000000000000000000000000000000000815260040161108a9061289a565b60405180910390fd5b6000600360008381526020019081526020016000206040518060e0016040529081600082015481526020016001820180546110cd90612430565b80601f01602080910402602001604051908101604052809291908181526020018280546110f990612430565b80156111465780601f1061111b57610100808354040283529160200191611146565b820191906000526020600020905b81548152906001019060200180831161112957829003601f168201915b5050505050815260200160028201805461115f90612430565b80601f016020809104026020016040519081016040528092919081815260200182805461118b90612430565b80156111d85780601f106111ad576101008083540402835291602001916111d8565b820191906000526020600020905b8154815290600101906020018083116111bb57829003601f168201915b505050505081526020016003820180546111f190612430565b80601f016020809104026020016040519081016040528092919081815260200182805461121d90612430565b801561126a5780601f1061123f5761010080835404028352916020019161126a565b820191906000526020600020905b81548152906001019060200180831161124d57829003601f168201915b5050505050815260200160048201805461128390612430565b80601f01602080910402602001604051908101604052809291908181526020018280546112af90612430565b80156112fc5780601f106112d1576101008083540402835291602001916112fc565b820191906000526020600020905b8154815290600101906020018083116112df57829003601f168201915b5050505050815260200160058201805461131590612430565b80601f016020809104026020016040519081016040528092919081815260200182805461134190612430565b801561138e5780601f106113635761010080835404028352916020019161138e565b820191906000526020600020905b81548152906001019060200180831161137157829003601f168201915b505050505081526020016006820160009054906101000a900473ffffffffffffffffffffffffffffffffffffffff1673ffffffffffffffffffffffffffffffffffffffff1673ffffffffffffffffffffffffffffffffffffffff16815250509050806000015181602001518260400151836060015184608001518560c00151975097509750975097509750505091939550919395565b60608060006001600085815260200190815260200160002090508060020160009054906101000a900460ff1615611490576040517f08c379a000000000000000000000000000000000000000000000000000000000815260040161148790612906565b60405180910390fd5b6000816003015467ffffffffffffffff8111156114b0576114af611b06565b5b6040519080825280602002602001820160405280156114e357816020015b60608152602001906001900390816114ce5790505b5090506000826003015467ffffffffffffffff81111561150657611505611b06565b5b6040519080825280602002602001820160405280156115345781602001602082028036833780820191505090505b5090506000600190505b8360030154811161166b57836004016000828152602001908152602001600020600101805461156c90612430565b80601f016020809104026020016040519081016040528092919081815260200182805461159890612430565b80156115e55780601f106115ba576101008083540402835291602001916115e5565b820191906000526020600020905b8154815290600101906020018083116115c857829003601f168201915b5050505050836001836115f89190612926565b815181106116095761160861295a565b5b6020026020010181905250836004016000828152602001908152602001600020600201548260018361163b9190612926565b8151811061164c5761164b61295a565b5b6020026020010181815250508080611663906123b9565b91505061153e565b50818194509450505050915091565b6000606060008060006001600087815260200190815260200160002090508060000154816001018260020160009054906101000a900460ff1683600301548280546116c490612430565b80601f01602080910402602001604051908101604052809291908181526020018280546116f090612430565b801561173d5780601f106117125761010080835404028352916020019161173d565b820191906000526020600020905b81548152906001019060200180831161172057829003601f168201915b505050505092509450945094509450509193509193565b6004818051602081018201805184825260208301602085012081835280955050505050506000915090505481565b600060048660405161179491906129c5565b908152602001604051809103902054146117e3576040517f08c379a00000000000000000000000000000000000000000000000000000000081526004016117da90612a28565b60405180910390fd5b60006005856040516117f591906129c5565b90815260200160405180910390205414611844576040517f08c379a000000000000000000000000000000000000000000000000000000000815260040161183b90612a94565b60405180910390fd5b6000600660008373ffffffffffffffffffffffffffffffffffffffff1673ffffffffffffffffffffffffffffffffffffffff16815260200190815260200160002054146118c6576040517f08c379a00000000000000000000000000000000000000000000000000000000081526004016118bd90612b00565b60405180910390fd5b600260008154809291906118d9906123b9565b91905055506040518060e0016040528060025481526020018781526020018681526020018581526020018481526020018381526020018273ffffffffffffffffffffffffffffffffffffffff1681525060036000600254815260200190815260200160002060008201518160000155602082015181600101908161195d919061260d565b506040820151816002019081611973919061260d565b506060820151816003019081611989919061260d565b50608082015181600401908161199f919061260d565b5060a08201518160050190816119b5919061260d565b5060c08201518160060160006101000a81548173ffffffffffffffffffffffffffffffffffffffff021916908373ffffffffffffffffffffffffffffffffffffffff160217905550905050600254600486604051611a1391906129c5565b908152602001604051809103902081905550600254600585604051611a3891906129c5565b908152602001604051809103902081905550600254600660008373ffffffffffffffffffffffffffffffffffffffff1673ffffffffffffffffffffffffffffffffffffffff168152602001908152602001600020819055507f5bebe1bc0a551428e2b2993336ba9956df649502884feb1b4e43922d67bc060c600254878684604051611ac79493929190612b20565b60405180910390a1505050505050565b6000604051905090565b600080fd5b600080fd5b600080fd5b600080fd5b6000601f19601f8301169050919050565b7f4e487b7100000000000000000000000000000000000000000000000000000000600052604160045260246000fd5b611b3e82611af5565b810181811067ffffffffffffffff82111715611b5d57611b5c611b06565b5b80604052505050565b6000611b70611ad7565b9050611b7c8282611b35565b919050565b600067ffffffffffffffff821115611b9c57611b9b611b06565b5b611ba582611af5565b9050602081019050919050565b82818337600083830152505050565b6000611bd4611bcf84611b81565b611b66565b905082815260208101848484011115611bf057611bef611af0565b5b611bfb848285611bb2565b509392505050565b600082601f830112611c1857611c17611aeb565b5b8135611c28848260208601611bc1565b91505092915050565b600060208284031215611c4757611c46611ae1565b5b600082013567ffffffffffffffff811115611c6557611c64611ae6565b5b611c7184828501611c03565b91505092915050565b6000819050919050565b611c8d81611c7a565b8114611c9857600080fd5b50565b600081359050611caa81611c84565b92915050565b60008060408385031215611cc757611cc6611ae1565b5b6000611cd585828601611c9b565b925050602083013567ffffffffffffffff811115611cf657611cf5611ae6565b5b611d0285828601611c03565b9150509250929050565b611d1581611c7a565b82525050565b6000602082019050611d306000830184611d0c565b92915050565b60008060408385031215611d4d57611d4c611ae1565b5b6000611d5b85828601611c9b565b9250506020611d6c85828601611c9b565b9150509250929050565b600081519050919050565b600082825260208201905092915050565b60005b83811015611db0578082015181840152602081019050611d95565b60008484015250505050565b6000611dc782611d76565b611dd18185611d81565b9350611de1818560208601611d92565b611dea81611af5565b840191505092915050565b6000606082019050611e0a6000830186611d0c565b8181036020830152611e1c8185611dbc565b9050611e2b6040830184611d0c565b949350505050565b600060208284031215611e4957611e48611ae1565b5b6000611e5784828501611c9b565b91505092915050565b60008115159050919050565b611e7581611e60565b82525050565b6000608082019050611e906000830187611d0c565b8181036020830152611ea28186611dbc565b9050611eb16040830185611e6c565b611ebe6060830184611d0c565b95945050505050565b600073ffffffffffffffffffffffffffffffffffffffff82169050919050565b6000611ef282611ec7565b9050919050565b611f0281611ee7565b8114611f0d57600080fd5b50565b600081359050611f1f81611ef9565b92915050565b600060208284031215611f3b57611f3a611ae1565b5b6000611f4984828501611f10565b91505092915050565b611f5b81611ee7565b82525050565b600060c082019050611f766000830189611d0c565b8181036020830152611f888188611dbc565b90508181036040830152611f9c8187611dbc565b90508181036060830152611fb08186611dbc565b90508181036080830152611fc48185611dbc565b9050611fd360a0830184611f52565b979650505050505050565b600060e082019050611ff3600083018a611d0c565b81810360208301526120058189611dbc565b905081810360408301526120198188611dbc565b9050818103606083015261202d8187611dbc565b905081810360808301526120418186611dbc565b905081810360a08301526120558185611dbc565b905061206460c0830184611f52565b98975050505050505050565b600081519050919050565b600082825260208201905092915050565b6000819050602082019050919050565b600082825260208201905092915050565b60006120b882611d76565b6120c2818561209c565b93506120d2818560208601611d92565b6120db81611af5565b840191505092915050565b60006120f283836120ad565b905092915050565b6000602082019050919050565b600061211282612070565b61211c818561207b565b93508360208202850161212e8561208c565b8060005b8581101561216a578484038952815161214b85826120e6565b9450612156836120fa565b925060208a01995050600181019050612132565b50829750879550505050505092915050565b600081519050919050565b600082825260208201905092915050565b6000819050602082019050919050565b6121b181611c7a565b82525050565b60006121c383836121a8565b60208301905092915050565b6000602082019050919050565b60006121e78261217c565b6121f18185612187565b93506121fc83612198565b8060005b8381101561222d57815161221488826121b7565b975061221f836121cf565b925050600181019050612200565b5085935050505092915050565b600060408201905081810360008301526122548185612107565b9050818103602083015261226881846121dc565b90509392505050565b60008060008060008060c0878903121561228e5761228d611ae1565b5b600087013567ffffffffffffffff8111156122ac576122ab611ae6565b5b6122b889828a01611c03565b965050602087013567ffffffffffffffff8111156122d9576122d8611ae6565b5b6122e589828a01611c03565b955050604087013567ffffffffffffffff81111561230657612305611ae6565b5b61231289828a01611c03565b945050606087013567ffffffffffffffff81111561233357612332611ae6565b5b61233f89828a01611c03565b935050608087013567ffffffffffffffff8111156123605761235f611ae6565b5b61236c89828a01611c03565b92505060a061237d89828a01611f10565b9150509295509295509295565b7f4e487b7100000000000000000000000000000000000000000000000000000000600052601160045260246000fd5b60006123c482611c7a565b91507fffffffffffffffffffffffffffffffffffffffffffffffffffffffffffffffff82036123f6576123f561238a565b5b600182019050919050565b7f4e487b7100000000000000000000000000000000000000000000000000000000600052602260045260246000fd5b6000600282049050600182168061244857607f821691505b60208210810361245b5761245a612401565b5b50919050565b60008190508160005260206000209050919050565b60006020601f8301049050919050565b600082821b905092915050565b6000600883026124c37fffffffffffffffffffffffffffffffffffffffffffffffffffffffffffffffff82612486565b6124cd8683612486565b95508019841693508086168417925050509392505050565b6000819050919050565b600061250a61250561250084611c7a565b6124e5565b611c7a565b9050919050565b6000819050919050565b612524836124ef565b61253861253082612511565b848454612493565b825550505050565b600090565b61254d612540565b61255881848461251b565b505050565b5b8181101561257c57612571600082612545565b60018101905061255e565b5050565b601f8211156125c15761259281612461565b61259b84612476565b810160208510156125aa578190505b6125be6125b685612476565b83018261255d565b50505b505050565b600082821c905092915050565b60006125e4600019846008026125c6565b1980831691505092915050565b60006125fd83836125d3565b9150826002028217905092915050565b61261682611d76565b67ffffffffffffffff81111561262f5761262e611b06565b5b6126398254612430565b612644828285612580565b600060209050601f8311600181146126775760008415612665578287015190505b61266f85826125f1565b8655506126d7565b601f19841661268586612461565b60005b828110156126ad57848901518255600182019150602085019450602081019050612688565b868310156126ca57848901516126c6601f8916826125d3565b8355505b6001600288020188555050505b505050505050565b60006040820190506126f46000830185611d0c565b81810360208301526127068184611dbc565b90509392505050565b7f456c656374696f6e206973206e6f742061637469766500000000000000000000600082015250565b6000612745601683611d81565b91506127508261270f565b602082019050919050565b6000602082019050818103600083015261277481612738565b9050919050565b60006060820190506127906000830186611d0c565b61279d6020830185611d0c565b81810360408301526127af8184611dbc565b9050949350505050565b7f596f75206861766520616c726561647920766f74656400000000000000000000600082015250565b60006127ef601683611d81565b91506127fa826127b9565b602082019050919050565b6000602082019050818103600083015261281e816127e2565b9050919050565b600060408201905061283a6000830185611d0c565b6128476020830184611d0c565b9392505050565b7f566f746572206e6f7420666f756e640000000000000000000000000000000000600082015250565b6000612884600f83611d81565b915061288f8261284e565b602082019050919050565b600060208201905081810360008301526128b381612877565b9050919050565b7f456c656374696f6e206973207374696c6c206163746976650000000000000000600082015250565b60006128f0601883611d81565b91506128fb826128ba565b602082019050919050565b6000602082019050818103600083015261291f816128e3565b9050919050565b600061293182611c7a565b915061293c83611c7a565b92508282039050818111156129545761295361238a565b5b92915050565b7f4e487b7100000000000000000000000000000000000000000000000000000000600052603260045260246000fd5b600081905092915050565b600061299f82611d76565b6129a98185612989565b93506129b9818560208601611d92565b80840191505092915050565b60006129d18284612994565b915081905092915050565b7f41616468617220616c7265616479207265676973746572656400000000000000600082015250565b6000612a12601983611d81565b9150612a1d826129dc565b602082019050919050565b60006020820190508181036000830152612a4181612a05565b9050919050565b7f456d61696c20616c726561647920726567697374657265640000000000000000600082015250565b6000612a7e601883611d81565b9150612a8982612a48565b602082019050919050565b60006020820190508181036000830152612aad81612a71565b9050919050565b7f57616c6c657420616c7265616479207265676973746572656400000000000000600082015250565b6000612aea601983611d81565b9150612af582612ab4565b602082019050919050565b60006020820190508181036000830152612b1981612add565b9050919050565b6000608082019050612b356000830187611d0c565b8181036020830152612b478186611dbc565b90508181036040830152612b5b8185611dbc565b9050612b6a6060830184611f52565b9594505050505056fea264697066735822122048e07bfdb4871ff07fb5a0bbab1cc4266b561dbc5d7915bd80e4e68d54c1ad9864736f6c63430008150033",
  "immutableReferences": {},
  "source": "// SPDX-License-Identifier: MIT\r\npragma solidity ^0.8.0;\r\n\r\ncontract Election {\r\n    struct Candidate {\r\n        uint id;\r\n        string name;\r\n        uint voteCount;\r\n    }\r\n\r\n    struct ElectionDetails {\r\n        uint id;\r\n        string name;\r\n        bool isActive;\r\n        uint candidateCount;\r\n        mapping(uint => Candidate) candidates;\r\n        mapping(address => bool) voters;\r\n    }\r\n\r\n    struct Voter {\r\n        uint id;\r\n        string name;\r\n        string aadhar;\r\n        string email;\r\n        string phone;\r\n        string passwordHash;\r\n        address walletAddress;\r\n    }\r\n\r\n    uint public electionCount;\r\n    mapping(uint => ElectionDetails) public elections;\r\n\r\n    uint public voterCount;\r\n    mapping(uint => Voter) public voters;\r\n    mapping(string => uint) public aadharToVoterId;\r\n    mapping(string => uint) public emailToVoterId;\r\n    mapping(address => uint) public walletToVoterId;\r\n\r\n    event ElectionCreated(uint electionId, string name);\r\n    event CandidateAdded(uint electionId, uint candidateId, string name);\r\n    event Voted(uint electionId, uint candidateId);\r\n    event VoterRegistered(uint voterId, string name, string email, address walletAddress);\r\n\r\n    function createElection(string memory _name) public {\r\n        electionCount++;\r\n        ElectionDetails storage newElection = elections[electionCount];\r\n        newElection.id = electionCount;\r\n        newElection.name = _name;\r\n        newElection.isActive = true;\r\n        newElection.candidateCount = 0;\r\n\r\n        emit ElectionCreated(electionCount, _name);\r\n    }\r\n\r\n    function addCandidate(uint _electionId, string memory _name) public {\r\n        ElectionDetails storage election = elections[_electionId];\r\n        require(election.isActive, \"Election is not active\");\r\n\r\n        election.candidateCount++;\r\n        election.candidates[election.candidateCount] = Candidate({\r\n            id: election.candidateCount,\r\n            name: _name,\r\n            voteCount: 0\r\n        });\r\n\r\n        emit CandidateAdded(_electionId, election.candidateCount, _name);\r\n    }\r\n\r\n    function vote(uint _electionId, uint _candidateId) public {\r\n        ElectionDetails storage election = elections[_electionId];\r\n        require(election.isActive, \"Election is not active\");\r\n        require(!election.voters[msg.sender], \"You have already voted\");\r\n\r\n        election.voters[msg.sender] = true;\r\n        election.candidates[_candidateId].voteCount++;\r\n\r\n        emit Voted(_electionId, _candidateId);\r\n    }\r\n\r\n    function registerVoter(\r\n        string memory _name,\r\n        string memory _aadhar,\r\n        string memory _email,\r\n        string memory _phone,\r\n        string memory _passwordHash,\r\n        address _walletAddress\r\n    ) public {\r\n        require(aadharToVoterId[_aadhar] == 0, \"Aadhar already registered\");\r\n        require(emailToVoterId[_email] == 0, \"Email already registered\");\r\n        require(walletToVoterId[_walletAddress] == 0, \"Wallet already registered\");\r\n\r\n        voterCount++;\r\n        voters[voterCount] = Voter({\r\n            id: voterCount,\r\n            name: _name,\r\n            aadhar: _aadhar,\r\n            email: _email,\r\n            phone: _phone,\r\n            passwordHash: _passwordHash,\r\n            walletAddress: _walletAddress\r\n        });\r\n\r\n        aadharToVoterId[_aadhar] = voterCount;\r\n        emailToVoterId[_email] = voterCount;\r\n        walletToVoterId[_walletAddress] = voterCount;\r\n\r\n        emit VoterRegistered(voterCount, _name, _email, _walletAddress);\r\n    }\r\n\r\n    function getCandidate(uint _electionId, uint _candidateId) public view returns (uint, string memory, uint) {\r\n        ElectionDetails storage election = elections[_electionId];\r\n        Candidate memory candidate = election.candidates[_candidateId];\r\n        return (candidate.id, candidate.name, candidate.voteCount);\r\n    }\r\n\r\n    function getElectionDetails(uint _electionId) public view returns (uint, string memory, bool, uint) {\r\n        ElectionDetails storage election = elections[_electionId];\r\n        return (election.id, election.name, election.isActive, election.candidateCount);\r\n    }\r\n\r\n    function getVoterDetails(uint _voterId) public view returns (uint, string memory, string memory, string memory, string memory, address) {\r\n        Voter memory voter = voters[_voterId];\r\n        return (voter.id, voter.name, voter.aadhar, voter.email, voter.phone, voter.walletAddress);\r\n    }\r\n\r\n    function getVoterByWallet(address _walletAddress) public view returns (uint, string memory, string memory, string memory, string memory, address) {\r\n        uint voterId = walletToVoterId[_walletAddress];\r\n        require(voterId != 0, \"Voter not found\");\r\n        Voter memory voter = voters[voterId];\r\n        return (voter.id, voter.name, voter.aadhar, voter.email, voter.phone, voter.walletAddress);\r\n    }\r\n\r\n    // New function to get election results\r\n    function getElectionResults(uint _electionId) public view returns (string[] memory, uint[] memory) {\r\n        ElectionDetails storage election = elections[_electionId];\r\n        require(!election.isActive, \"Election is still active\");\r\n\r\n        string[] memory candidateNames = new string[](election.candidateCount);\r\n        uint[] memory voteCounts = new uint[](election.candidateCount);\r\n\r\n        for (uint i = 1; i <= election.candidateCount; i++) {\r\n            candidateNames[i - 1] = election.candidates[i].name;\r\n            voteCounts[i - 1] = election.candidates[i].voteCount;\r\n        }\r\n\r\n        return (candidateNames, voteCounts);\r\n    }\r\n}",
  "sourcePath": "C:\\Users\\samue\\OneDrive\\Documents\\GitHub\\hackquinox\\smart_contract\\contracts\\Election.sol",
  "compiler": {
    "name": "solc",
    "version": "0.8.21+commit.d9974bed.Emscripten.clang"
  },
  "schemaVersion": "3.4.16",
  "updatedAt": "2025-02-01T09:16:25.582Z",
  "devdoc": {
    "kind": "dev",
    "methods": {},
    "version": 1
  },
  "userdoc": {
    "kind": "user",
    "methods": {},
    "version": 1
  }
}