{
  "contractName": "VotingSystem",
  "abi": [
    {
      "inputs": [],
      "stateMutability": "nonpayable",
      "type": "constructor"
    },
    {
      "anonymous": false,
      "inputs": [
        {
          "indexed": false,
          "internalType": "uint256",
          "name": "electionId",
          "type": "uint256"
        },
        {
          "indexed": false,
          "internalType": "address",
          "name": "candidate",
          "type": "address"
        }
      ],
      "name": "CandidateAdded",
      "type": "event"
    },
    {
      "anonymous": false,
      "inputs": [
        {
          "indexed": false,
          "internalType": "uint256",
          "name": "electionId",
          "type": "uint256"
        },
        {
          "indexed": false,
          "internalType": "string",
          "name": "name",
          "type": "string"
        },
        {
          "indexed": false,
          "internalType": "uint256",
          "name": "startTime",
          "type": "uint256"
        },
        {
          "indexed": false,
          "internalType": "uint256",
          "name": "endTime",
          "type": "uint256"
        }
      ],
      "name": "ElectionCreated",
      "type": "event"
    },
    {
      "anonymous": false,
      "inputs": [
        {
          "indexed": false,
          "internalType": "uint256",
          "name": "electionId",
          "type": "uint256"
        },
        {
          "indexed": false,
          "internalType": "address",
          "name": "voter",
          "type": "address"
        },
        {
          "indexed": false,
          "internalType": "address",
          "name": "candidate",
          "type": "address"
        }
      ],
      "name": "Voted",
      "type": "event"
    },
    {
      "anonymous": false,
      "inputs": [
        {
          "indexed": false,
          "internalType": "uint256",
          "name": "electionId",
          "type": "uint256"
        },
        {
          "indexed": false,
          "internalType": "address",
          "name": "voter",
          "type": "address"
        }
      ],
      "name": "VoterAdded",
      "type": "event"
    },
    {
      "inputs": [],
      "name": "admin",
      "outputs": [
        {
          "internalType": "address",
          "name": "",
          "type": "address"
        }
      ],
      "stateMutability": "view",
      "type": "function"
    },
    {
      "inputs": [],
      "name": "electionCount",
      "outputs": [
        {
          "internalType": "uint256",
          "name": "",
          "type": "uint256"
        }
      ],
      "stateMutability": "view",
      "type": "function"
    },
    {
      "inputs": [
        {
          "internalType": "uint256",
          "name": "",
          "type": "uint256"
        }
      ],
      "name": "elections",
      "outputs": [
        {
          "internalType": "uint256",
          "name": "id",
          "type": "uint256"
        },
        {
          "internalType": "string",
          "name": "name",
          "type": "string"
        },
        {
          "internalType": "uint256",
          "name": "startTime",
          "type": "uint256"
        },
        {
          "internalType": "uint256",
          "name": "endTime",
          "type": "uint256"
        },
        {
          "internalType": "bool",
          "name": "isActive",
          "type": "bool"
        }
      ],
      "stateMutability": "view",
      "type": "function"
    },
    {
      "inputs": [
        {
          "internalType": "string",
          "name": "_name",
          "type": "string"
        },
        {
          "internalType": "uint256",
          "name": "_startTime",
          "type": "uint256"
        },
        {
          "internalType": "uint256",
          "name": "_endTime",
          "type": "uint256"
        }
      ],
      "name": "createElection",
      "outputs": [],
      "stateMutability": "nonpayable",
      "type": "function"
    },
    {
      "inputs": [
        {
          "internalType": "uint256",
          "name": "_electionId",
          "type": "uint256"
        },
        {
          "internalType": "address",
          "name": "_voter",
          "type": "address"
        }
      ],
      "name": "addVoter",
      "outputs": [],
      "stateMutability": "nonpayable",
      "type": "function"
    },
    {
      "inputs": [
        {
          "internalType": "uint256",
          "name": "_electionId",
          "type": "uint256"
        },
        {
          "internalType": "address",
          "name": "_candidate",
          "type": "address"
        }
      ],
      "name": "addCandidate",
      "outputs": [],
      "stateMutability": "nonpayable",
      "type": "function"
    },
    {
      "inputs": [
        {
          "internalType": "uint256",
          "name": "_electionId",
          "type": "uint256"
        },
        {
          "internalType": "address",
          "name": "_candidate",
          "type": "address"
        }
      ],
      "name": "vote",
      "outputs": [],
      "stateMutability": "nonpayable",
      "type": "function"
    },
    {
      "inputs": [
        {
          "internalType": "uint256",
          "name": "_electionId",
          "type": "uint256"
        },
        {
          "internalType": "address",
          "name": "_voter",
          "type": "address"
        }
      ],
      "name": "hasVoted",
      "outputs": [
        {
          "internalType": "bool",
          "name": "",
          "type": "bool"
        }
      ],
      "stateMutability": "view",
      "type": "function"
    },
    {
      "inputs": [
        {
          "internalType": "uint256",
          "name": "_electionId",
          "type": "uint256"
        }
      ],
      "name": "getCandidates",
      "outputs": [
        {
          "internalType": "address[]",
          "name": "",
          "type": "address[]"
        }
      ],
      "stateMutability": "view",
      "type": "function"
    },
    {
      "inputs": [
        {
          "internalType": "uint256",
          "name": "_electionId",
          "type": "uint256"
        },
        {
          "internalType": "address",
          "name": "_candidate",
          "type": "address"
        }
      ],
      "name": "getVotes",
      "outputs": [
        {
          "internalType": "uint256",
          "name": "",
          "type": "uint256"
        }
      ],
      "stateMutability": "view",
      "type": "function"
    }
  ],
  "bytecode": "0x608060405234801561001057600080fd5b50336000806101000a81548173ffffffffffffffffffffffffffffffffffffffff021916908373ffffffffffffffffffffffffffffffffffffffff16021790555061194d806100606000396000f3fe608060405234801561001057600080fd5b506004361061009e5760003560e01c80635e6fef01116100665780635e6fef0114610157578063681973601461018b578063997d2830146101bb578063f49a7a17146101d9578063f851a440146101f55761009e565b806302d947ef146100a357806309391321146100bf57806333c57ccd146100db5780633e39a7a5146100f75780634385963214610127575b600080fd5b6100bd60048036038101906100b89190610cdf565b610213565b005b6100d960048036038101906100d49190610cdf565b610528565b005b6100f560048036038101906100f09190610cdf565b610700565b005b610111600480360381019061010c9190610d1f565b610842565b60405161011e9190610e0a565b60405180910390f35b610141600480360381019061013c9190610cdf565b6108e6565b60405161014e9190610e47565b60405180910390f35b610171600480360381019061016c9190610d1f565b610952565b604051610182959493929190610f01565b60405180910390f35b6101a560048036038101906101a09190610cdf565b610a1d565b6040516101b29190610f5b565b60405180910390f35b6101c3610a7b565b6040516101d09190610f5b565b60405180910390f35b6101f360048036038101906101ee91906110ab565b610a81565b005b6101fd610c13565b60405161020a9190611129565b60405180910390f35b816002600082815260200190815260200160002060040160009054906101000a900460ff16610277576040517f08c379a000000000000000000000000000000000000000000000000000000000815260040161026e90611190565b60405180910390fd5b60026000828152602001908152602001600020600201544210156102d0576040517f08c379a00000000000000000000000000000000000000000000000000000000081526004016102c7906111fc565b60405180910390fd5b6002600082815260200190815260200160002060030154421115610329576040517f08c379a000000000000000000000000000000000000000000000000000000000815260040161032090611268565b60405180910390fd5b6002600084815260200190815260200160002060070160003373ffffffffffffffffffffffffffffffffffffffff1673ffffffffffffffffffffffffffffffffffffffff16815260200190815260200160002060009054906101000a900460ff166103c9576040517f08c379a00000000000000000000000000000000000000000000000000000000081526004016103c0906112fa565b60405180910390fd5b6103d383336108e6565b15610413576040517f08c379a000000000000000000000000000000000000000000000000000000000815260040161040a90611366565b60405180910390fd5b6002600084815260200190815260200160002060060160008373ffffffffffffffffffffffffffffffffffffffff1673ffffffffffffffffffffffffffffffffffffffff1681526020019081526020016000206000815480929190610477906113b5565b919050555060006002600085815260200190815260200160002060070160003373ffffffffffffffffffffffffffffffffffffffff1673ffffffffffffffffffffffffffffffffffffffff16815260200190815260200160002060006101000a81548160ff0219169083151502179055507ff6c8f1f54b2f54fb963820203fdef5b9aefb56ae2c4dd8b6133e151791a07f3683338460405161051b939291906113fd565b60405180910390a1505050565b60008054906101000a900473ffffffffffffffffffffffffffffffffffffffff1673ffffffffffffffffffffffffffffffffffffffff163373ffffffffffffffffffffffffffffffffffffffff16146105b6576040517f08c379a00000000000000000000000000000000000000000000000000000000081526004016105ad906114a6565b60405180910390fd5b6002600083815260200190815260200160002060070160008273ffffffffffffffffffffffffffffffffffffffff1673ffffffffffffffffffffffffffffffffffffffff16815260200190815260200160002060009054906101000a900460ff1615610657576040517f08c379a000000000000000000000000000000000000000000000000000000000815260040161064e90611512565b60405180910390fd5b60016002600084815260200190815260200160002060070160008373ffffffffffffffffffffffffffffffffffffffff1673ffffffffffffffffffffffffffffffffffffffff16815260200190815260200160002060006101000a81548160ff0219169083151502179055507fbe03f66069cbbe16c325546c4cf7a8d334ab3baa0a1e50ad1b5955cf7565f51482826040516106f4929190611532565b60405180910390a15050565b60008054906101000a900473ffffffffffffffffffffffffffffffffffffffff1673ffffffffffffffffffffffffffffffffffffffff163373ffffffffffffffffffffffffffffffffffffffff161461078e576040517f08c379a0000000000000000000000000000000000000000000000000000000008152600401610785906114a6565b60405180910390fd5b60026000838152602001908152602001600020600501819080600181540180825580915050600190039060005260206000200160009091909190916101000a81548173ffffffffffffffffffffffffffffffffffffffff021916908373ffffffffffffffffffffffffffffffffffffffff1602179055507fae67715e53b8e1ee028f0b9cddbc208be7d0889701d1ba0ec4414baeaf37b2eb8282604051610836929190611532565b60405180910390a15050565b6060600260008381526020019081526020016000206005018054806020026020016040519081016040528092919081815260200182805480156108da57602002820191906000526020600020905b8160009054906101000a900473ffffffffffffffffffffffffffffffffffffffff1673ffffffffffffffffffffffffffffffffffffffff1681526020019060010190808311610890575b50505050509050919050565b60006002600084815260200190815260200160002060070160008373ffffffffffffffffffffffffffffffffffffffff1673ffffffffffffffffffffffffffffffffffffffff16815260200190815260200160002060009054906101000a900460ff1615905092915050565b600260205280600052604060002060009150905080600001549080600101805461097b9061158a565b80601f01602080910402602001604051908101604052809291908181526020018280546109a79061158a565b80156109f45780601f106109c9576101008083540402835291602001916109f4565b820191906000526020600020905b8154815290600101906020018083116109d757829003601f168201915b5050505050908060020154908060030154908060040160009054906101000a900460ff16905085565b60006002600084815260200190815260200160002060060160008373ffffffffffffffffffffffffffffffffffffffff1673ffffffffffffffffffffffffffffffffffffffff16815260200190815260200160002054905092915050565b60015481565b60008054906101000a900473ffffffffffffffffffffffffffffffffffffffff1673ffffffffffffffffffffffffffffffffffffffff163373ffffffffffffffffffffffffffffffffffffffff1614610b0f576040517f08c379a0000000000000000000000000000000000000000000000000000000008152600401610b06906114a6565b60405180910390fd5b808210610b51576040517f08c379a0000000000000000000000000000000000000000000000000000000008152600401610b489061162d565b60405180910390fd5b60016000815480929190610b64906113b5565b919050555060006002600060015481526020019081526020016000209050600154816000018190555083816001019081610b9e91906117f9565b5082816002018190555081816003018190555060018160040160006101000a81548160ff0219169083151502179055507fe7a0aae5d733e07e246dea86213a1ac1b0aa8554bde889bb75c12752f44e53d9600154858585604051610c0594939291906118cb565b60405180910390a150505050565b60008054906101000a900473ffffffffffffffffffffffffffffffffffffffff1681565b6000604051905090565b600080fd5b600080fd5b6000819050919050565b610c5e81610c4b565b8114610c6957600080fd5b50565b600081359050610c7b81610c55565b92915050565b600073ffffffffffffffffffffffffffffffffffffffff82169050919050565b6000610cac82610c81565b9050919050565b610cbc81610ca1565b8114610cc757600080fd5b50565b600081359050610cd981610cb3565b92915050565b60008060408385031215610cf657610cf5610c41565b5b6000610d0485828601610c6c565b9250506020610d1585828601610cca565b9150509250929050565b600060208284031215610d3557610d34610c41565b5b6000610d4384828501610c6c565b91505092915050565b600081519050919050565b600082825260208201905092915050565b6000819050602082019050919050565b610d8181610ca1565b82525050565b6000610d938383610d78565b60208301905092915050565b6000602082019050919050565b6000610db782610d4c565b610dc18185610d57565b9350610dcc83610d68565b8060005b83811015610dfd578151610de48882610d87565b9750610def83610d9f565b925050600181019050610dd0565b5085935050505092915050565b60006020820190508181036000830152610e248184610dac565b905092915050565b60008115159050919050565b610e4181610e2c565b82525050565b6000602082019050610e5c6000830184610e38565b92915050565b610e6b81610c4b565b82525050565b600081519050919050565b600082825260208201905092915050565b60005b83811015610eab578082015181840152602081019050610e90565b60008484015250505050565b6000601f19601f8301169050919050565b6000610ed382610e71565b610edd8185610e7c565b9350610eed818560208601610e8d565b610ef681610eb7565b840191505092915050565b600060a082019050610f166000830188610e62565b8181036020830152610f288187610ec8565b9050610f376040830186610e62565b610f446060830185610e62565b610f516080830184610e38565b9695505050505050565b6000602082019050610f706000830184610e62565b92915050565b600080fd5b600080fd5b7f4e487b7100000000000000000000000000000000000000000000000000000000600052604160045260246000fd5b610fb882610eb7565b810181811067ffffffffffffffff82111715610fd757610fd6610f80565b5b80604052505050565b6000610fea610c37565b9050610ff68282610faf565b919050565b600067ffffffffffffffff82111561101657611015610f80565b5b61101f82610eb7565b9050602081019050919050565b82818337600083830152505050565b600061104e61104984610ffb565b610fe0565b90508281526020810184848401111561106a57611069610f7b565b5b61107584828561102c565b509392505050565b600082601f83011261109257611091610f76565b5b81356110a284826020860161103b565b91505092915050565b6000806000606084860312156110c4576110c3610c41565b5b600084013567ffffffffffffffff8111156110e2576110e1610c46565b5b6110ee8682870161107d565b93505060206110ff86828701610c6c565b925050604061111086828701610c6c565b9150509250925092565b61112381610ca1565b82525050565b600060208201905061113e600083018461111a565b92915050565b7f456c656374696f6e206973206e6f742061637469766500000000000000000000600082015250565b600061117a601683610e7c565b915061118582611144565b602082019050919050565b600060208201905081810360008301526111a98161116d565b9050919050565b7f456c656374696f6e20686173206e6f7420737461727465642079657400000000600082015250565b60006111e6601c83610e7c565b91506111f1826111b0565b602082019050919050565b60006020820190508181036000830152611215816111d9565b9050919050565b7f456c656374696f6e2068617320656e6465640000000000000000000000000000600082015250565b6000611252601283610e7c565b915061125d8261121c565b602082019050919050565b6000602082019050818103600083015261128181611245565b9050919050565b7f596f7520617265206e6f7420617574686f72697a656420746f20766f7465206960008201527f6e207468697320656c656374696f6e0000000000000000000000000000000000602082015250565b60006112e4602f83610e7c565b91506112ef82611288565b604082019050919050565b60006020820190508181036000830152611313816112d7565b9050919050565b7f596f75206861766520616c726561647920766f74656400000000000000000000600082015250565b6000611350601683610e7c565b915061135b8261131a565b602082019050919050565b6000602082019050818103600083015261137f81611343565b9050919050565b7f4e487b7100000000000000000000000000000000000000000000000000000000600052601160045260246000fd5b60006113c082610c4b565b91507fffffffffffffffffffffffffffffffffffffffffffffffffffffffffffffffff82036113f2576113f1611386565b5b600182019050919050565b60006060820190506114126000830186610e62565b61141f602083018561111a565b61142c604083018461111a565b949350505050565b7f4f6e6c792061646d696e2063616e20706572666f726d2074686973206163746960008201527f6f6e000000000000000000000000000000000000000000000000000000000000602082015250565b6000611490602283610e7c565b915061149b82611434565b604082019050919050565b600060208201905081810360008301526114bf81611483565b9050919050565b7f566f74657220616c726561647920616464656400000000000000000000000000600082015250565b60006114fc601383610e7c565b9150611507826114c6565b602082019050919050565b6000602082019050818103600083015261152b816114ef565b9050919050565b60006040820190506115476000830185610e62565b611554602083018461111a565b9392505050565b7f4e487b7100000000000000000000000000000000000000000000000000000000600052602260045260246000fd5b600060028204905060018216806115a257607f821691505b6020821081036115b5576115b461155b565b5b50919050565b7f53746172742074696d65206d757374206265206265666f726520656e6420746960008201527f6d65000000000000000000000000000000000000000000000000000000000000602082015250565b6000611617602283610e7c565b9150611622826115bb565b604082019050919050565b600060208201905081810360008301526116468161160a565b9050919050565b60008190508160005260206000209050919050565b60006020601f8301049050919050565b600082821b905092915050565b6000600883026116af7fffffffffffffffffffffffffffffffffffffffffffffffffffffffffffffffff82611672565b6116b98683611672565b95508019841693508086168417925050509392505050565b6000819050919050565b60006116f66116f16116ec84610c4b565b6116d1565b610c4b565b9050919050565b6000819050919050565b611710836116db565b61172461171c826116fd565b84845461167f565b825550505050565b600090565b61173961172c565b611744818484611707565b505050565b5b818110156117685761175d600082611731565b60018101905061174a565b5050565b601f8211156117ad5761177e8161164d565b61178784611662565b81016020851015611796578190505b6117aa6117a285611662565b830182611749565b50505b505050565b600082821c905092915050565b60006117d0600019846008026117b2565b1980831691505092915050565b60006117e983836117bf565b9150826002028217905092915050565b61180282610e71565b67ffffffffffffffff81111561181b5761181a610f80565b5b611825825461158a565b61183082828561176c565b600060209050601f8311600181146118635760008415611851578287015190505b61185b85826117dd565b8655506118c3565b601f1984166118718661164d565b60005b8281101561189957848901518255600182019150602085019450602081019050611874565b868310156118b657848901516118b2601f8916826117bf565b8355505b6001600288020188555050505b505050505050565b60006080820190506118e06000830187610e62565b81810360208301526118f28186610ec8565b90506119016040830185610e62565b61190e6060830184610e62565b9594505050505056fea26469706673582212200e418f3fab2c57d4bacff9df2c9c24657881ff69340c978328e94dddbc26688d64736f6c63430008150033",
  "immutableReferences": {},
  "source": "// SPDX-License-Identifier: MIT\r\npragma solidity ^0.8.0;\r\n\r\ncontract VotingSystem {\r\n    struct Election {\r\n        uint id;\r\n        string name;\r\n        uint startTime;\r\n        uint endTime;\r\n        bool isActive;\r\n        address[] candidates;\r\n        mapping(address => uint) votesReceived;\r\n        mapping(address => bool) voters;\r\n    }\r\n\r\n    address public admin;\r\n    uint public electionCount;\r\n    mapping(uint => Election) public elections;\r\n\r\n    event ElectionCreated(uint electionId, string name, uint startTime, uint endTime);\r\n    event VoterAdded(uint electionId, address voter);\r\n    event CandidateAdded(uint electionId, address candidate);\r\n    event Voted(uint electionId, address voter, address candidate);\r\n\r\n    modifier onlyAdmin() {\r\n        require(msg.sender == admin, \"Only admin can perform this action\");\r\n        _;\r\n    }\r\n\r\n    modifier onlyDuringElection(uint _electionId) {\r\n        require(elections[_electionId].isActive, \"Election is not active\");\r\n        require(block.timestamp >= elections[_electionId].startTime, \"Election has not started yet\");\r\n        require(block.timestamp <= elections[_electionId].endTime, \"Election has ended\");\r\n        _;\r\n    }\r\n\r\n    constructor() {\r\n        admin = msg.sender;\r\n    }\r\n\r\n    function createElection(string memory _name, uint _startTime, uint _endTime) public onlyAdmin {\r\n        require(_startTime < _endTime, \"Start time must be before end time\");\r\n\r\n        electionCount++;\r\n        Election storage newElection = elections[electionCount];\r\n        newElection.id = electionCount;\r\n        newElection.name = _name;\r\n        newElection.startTime = _startTime;\r\n        newElection.endTime = _endTime;\r\n        newElection.isActive = true;\r\n\r\n        emit ElectionCreated(electionCount, _name, _startTime, _endTime);\r\n    }\r\n\r\n    function addVoter(uint _electionId, address _voter) public onlyAdmin {\r\n        require(!elections[_electionId].voters[_voter], \"Voter already added\");\r\n\r\n        elections[_electionId].voters[_voter] = true;\r\n        emit VoterAdded(_electionId, _voter);\r\n    }\r\n\r\n    function addCandidate(uint _electionId, address _candidate) public onlyAdmin {\r\n        elections[_electionId].candidates.push(_candidate);\r\n        emit CandidateAdded(_electionId, _candidate);\r\n    }\r\n\r\n    function vote(uint _electionId, address _candidate) public onlyDuringElection(_electionId) {\r\n        require(elections[_electionId].voters[msg.sender], \"You are not authorized to vote in this election\");\r\n        require(!hasVoted(_electionId, msg.sender), \"You have already voted\");\r\n\r\n        elections[_electionId].votesReceived[_candidate]++;\r\n        elections[_electionId].voters[msg.sender] = false; // Mark as voted\r\n        emit Voted(_electionId, msg.sender, _candidate);\r\n    }\r\n\r\n    function hasVoted(uint _electionId, address _voter) public view returns (bool) {\r\n        return !elections[_electionId].voters[_voter];\r\n    }\r\n\r\n    function getCandidates(uint _electionId) public view returns (address[] memory) {\r\n        return elections[_electionId].candidates;\r\n    }\r\n\r\n    function getVotes(uint _electionId, address _candidate) public view returns (uint) {\r\n        return elections[_electionId].votesReceived[_candidate];\r\n    }\r\n}",
  "sourcePath": "C:\\Users\\samue\\OneDrive\\Documents\\GitHub\\hackquinox\\smart_contract\\contracts\\VotingSystem.sol",
  "compiler": {
    "name": "solc",
    "version": "0.8.21+commit.d9974bed.Emscripten.clang"
  },
  "schemaVersion": "3.4.16",
  "updatedAt": "2025-02-01T11:35:02.818Z",
  "devdoc": {
    "kind": "dev",
    "methods": {},
    "version": 1
  },
  "userdoc": {
    "kind": "user",
    "methods": {},
    "version": 1
  }
}